{
  "_format": "hh-sol-artifact-1",
  "contractName": "WarrantyCard",
  "sourceName": "contracts/WarrantyCard.sol",
  "abi": [
    {
      "inputs": [],
      "stateMutability": "nonpayable",
      "type": "constructor"
    },
    {
      "anonymous": false,
      "inputs": [
        {
          "indexed": true,
          "internalType": "address",
          "name": "owner",
          "type": "address"
        },
        {
          "indexed": true,
          "internalType": "address",
          "name": "approved",
          "type": "address"
        },
        {
          "indexed": true,
          "internalType": "uint256",
          "name": "tokenId",
          "type": "uint256"
        }
      ],
      "name": "Approval",
      "type": "event"
    },
    {
      "anonymous": false,
      "inputs": [
        {
          "indexed": true,
          "internalType": "address",
          "name": "owner",
          "type": "address"
        },
        {
          "indexed": true,
          "internalType": "address",
          "name": "operator",
          "type": "address"
        },
        {
          "indexed": false,
          "internalType": "bool",
          "name": "approved",
          "type": "bool"
        }
      ],
      "name": "ApprovalForAll",
      "type": "event"
    },
    {
      "anonymous": false,
      "inputs": [
        {
          "indexed": false,
          "internalType": "address",
          "name": "sender",
          "type": "address"
        },
        {
          "indexed": false,
          "internalType": "uint256",
          "name": "tokenId",
          "type": "uint256"
        }
      ],
      "name": "NewProductNFTMinted",
      "type": "event"
    },
    {
      "anonymous": false,
      "inputs": [
        {
          "indexed": true,
          "internalType": "address",
          "name": "from",
          "type": "address"
        },
        {
          "indexed": true,
          "internalType": "address",
          "name": "to",
          "type": "address"
        },
        {
          "indexed": true,
          "internalType": "uint256",
          "name": "tokenId",
          "type": "uint256"
        }
      ],
      "name": "Transfer",
      "type": "event"
    },
    {
      "inputs": [
        {
          "internalType": "address",
          "name": "to",
          "type": "address"
        },
        {
          "internalType": "uint256",
          "name": "tokenId",
          "type": "uint256"
        }
      ],
      "name": "approve",
      "outputs": [],
      "stateMutability": "nonpayable",
      "type": "function"
    },
    {
      "inputs": [
        {
          "internalType": "address",
          "name": "owner",
          "type": "address"
        }
      ],
      "name": "balanceOf",
      "outputs": [
        {
          "internalType": "uint256",
          "name": "",
          "type": "uint256"
        }
      ],
      "stateMutability": "view",
      "type": "function"
    },
    {
      "inputs": [
        {
          "internalType": "uint256",
          "name": "tokenId",
          "type": "uint256"
        }
      ],
      "name": "getApproved",
      "outputs": [
        {
          "internalType": "address",
          "name": "",
          "type": "address"
        }
      ],
      "stateMutability": "view",
      "type": "function"
    },
    {
      "inputs": [
        {
          "internalType": "address",
          "name": "owner",
          "type": "address"
        },
        {
          "internalType": "address",
          "name": "operator",
          "type": "address"
        }
      ],
      "name": "isApprovedForAll",
      "outputs": [
        {
          "internalType": "bool",
          "name": "",
          "type": "bool"
        }
      ],
      "stateMutability": "view",
      "type": "function"
    },
    {
      "inputs": [
        {
          "internalType": "string",
          "name": "productName",
          "type": "string"
        },
        {
          "internalType": "string",
          "name": "attributes",
          "type": "string"
        },
        {
          "internalType": "string",
          "name": "productDescription",
          "type": "string"
        }
      ],
      "name": "makeAProductNFT",
      "outputs": [],
      "stateMutability": "nonpayable",
      "type": "function"
    },
    {
      "inputs": [],
      "name": "name",
      "outputs": [
        {
          "internalType": "string",
          "name": "",
          "type": "string"
        }
      ],
      "stateMutability": "view",
      "type": "function"
    },
    {
      "inputs": [
        {
          "internalType": "uint256",
          "name": "tokenId",
          "type": "uint256"
        }
      ],
      "name": "ownerOf",
      "outputs": [
        {
          "internalType": "address",
          "name": "",
          "type": "address"
        }
      ],
      "stateMutability": "view",
      "type": "function"
    },
    {
      "inputs": [
        {
          "internalType": "address",
          "name": "from",
          "type": "address"
        },
        {
          "internalType": "address",
          "name": "to",
          "type": "address"
        },
        {
          "internalType": "uint256",
          "name": "tokenId",
          "type": "uint256"
        }
      ],
      "name": "safeTransferFrom",
      "outputs": [],
      "stateMutability": "nonpayable",
      "type": "function"
    },
    {
      "inputs": [
        {
          "internalType": "address",
          "name": "from",
          "type": "address"
        },
        {
          "internalType": "address",
          "name": "to",
          "type": "address"
        },
        {
          "internalType": "uint256",
          "name": "tokenId",
          "type": "uint256"
        },
        {
          "internalType": "bytes",
          "name": "data",
          "type": "bytes"
        }
      ],
      "name": "safeTransferFrom",
      "outputs": [],
      "stateMutability": "nonpayable",
      "type": "function"
    },
    {
      "inputs": [
        {
          "internalType": "address",
          "name": "operator",
          "type": "address"
        },
        {
          "internalType": "bool",
          "name": "approved",
          "type": "bool"
        }
      ],
      "name": "setApprovalForAll",
      "outputs": [],
      "stateMutability": "nonpayable",
      "type": "function"
    },
    {
      "inputs": [
        {
          "internalType": "bytes4",
          "name": "interfaceId",
          "type": "bytes4"
        }
      ],
      "name": "supportsInterface",
      "outputs": [
        {
          "internalType": "bool",
          "name": "",
          "type": "bool"
        }
      ],
      "stateMutability": "view",
      "type": "function"
    },
    {
      "inputs": [],
      "name": "symbol",
      "outputs": [
        {
          "internalType": "string",
          "name": "",
          "type": "string"
        }
      ],
      "stateMutability": "view",
      "type": "function"
    },
    {
      "inputs": [
        {
          "internalType": "uint256",
          "name": "tokenId",
          "type": "uint256"
        }
      ],
      "name": "tokenURI",
      "outputs": [
        {
          "internalType": "string",
          "name": "",
          "type": "string"
        }
      ],
      "stateMutability": "view",
      "type": "function"
    },
    {
      "inputs": [
        {
          "internalType": "address",
          "name": "from",
          "type": "address"
        },
        {
          "internalType": "address",
          "name": "to",
          "type": "address"
        },
        {
          "internalType": "uint256",
          "name": "tokenId",
          "type": "uint256"
        }
      ],
      "name": "transferFrom",
      "outputs": [],
      "stateMutability": "nonpayable",
      "type": "function"
    }
  ],
  "bytecode": "0x6101e060405261012f60808181529062001fd060a03980516200002b9160089160209091019062000162565b503480156200003957600080fd5b50604080518082018252600981526814dc5d585c9953919560ba1b60208083019182528351808501909452600684526553515541524560d01b908401528151919291620000899160009162000162565b5080516200009f90600190602084019062000162565b505050620000ed6040518060400160405280601e81526020017f54686973206973206d79204e465420636f6e74726163742e20576f6168210000815250620000f360201b620007ab1760201c565b6200029b565b6200013e816040516024016200010a919062000208565b60408051601f198184030181529190526020810180516001600160e01b0390811663104c13eb60e21b179091526200014116565b50565b80516a636f6e736f6c652e6c6f67602083016000808483855afa5050505050565b82805462000170906200025e565b90600052602060002090601f016020900481019282620001945760008555620001df565b82601f10620001af57805160ff1916838001178555620001df565b82800160010185558215620001df579182015b82811115620001df578251825591602001919060010190620001c2565b50620001ed929150620001f1565b5090565b5b80821115620001ed5760008155600101620001f2565b6000602080835283518082850152825b81811015620002365785810183015185820160400152820162000218565b81811115620002485783604083870101525b50601f01601f1916929092016040019392505050565b6002810460018216806200027357607f821691505b602082108114156200029557634e487b7160e01b600052602260045260246000fd5b50919050565b611d2580620002ab6000396000f3fe608060405234801561001057600080fd5b50600436106100ea5760003560e01c806370a082311161008c578063b88d4fde11610066578063b88d4fde146101d6578063c87b56dd146101e9578063dd1addb6146101fc578063e985e9c51461020f576100ea565b806370a082311461019b57806395d89b41146101bb578063a22cb465146101c3576100ea565b8063095ea7b3116100c8578063095ea7b31461014d57806323b872dd1461016257806342842e0e146101755780636352211e14610188576100ea565b806301ffc9a7146100ef57806306fdde0314610118578063081812fc1461012d575b600080fd5b6101026100fd3660046113e8565b610222565b60405161010f919061179c565b60405180910390f35b61012061026a565b60405161010f91906117a7565b61014061013b3660046114a4565b6102fc565b60405161010f9190611732565b61016061015b3660046113bf565b610323565b005b6101606101703660046112d1565b6103c4565b6101606101833660046112d1565b6103fc565b6101406101963660046114a4565b610417565b6101ae6101a9366004611285565b61044c565b60405161010f9190611b25565b610120610490565b6101606101d1366004611385565b61049f565b6101606101e436600461130c565b6104b5565b6101206101f73660046114a4565b6104f4565b61016061020a366004611420565b6105f9565b61010261021d36600461129f565b61077d565b60006001600160e01b031982166380ac58cd60e01b148061025357506001600160e01b03198216635b5e139f60e01b145b806102625750610262826107f1565b90505b919050565b60606000805461027990611bc8565b80601f01602080910402602001604051908101604052809291908181526020018280546102a590611bc8565b80156102f25780601f106102c7576101008083540402835291602001916102f2565b820191906000526020600020905b8154815290600101906020018083116102d557829003601f168201915b5050505050905090565b60006103078261080a565b506000908152600460205260409020546001600160a01b031690565b600061032e82610417565b9050806001600160a01b0316836001600160a01b0316141561036b5760405162461bcd60e51b815260040161036290611a96565b60405180910390fd5b806001600160a01b031661037d61082f565b6001600160a01b0316148061039957506103998161021d61082f565b6103b55760405162461bcd60e51b8152600401610362906119cd565b6103bf8383610833565b505050565b6103d56103cf61082f565b826108a1565b6103f15760405162461bcd60e51b815260040161036290611ad7565b6103bf8383836108ff565b6103bf838383604051806020016040528060008152506104b5565b6000818152600260205260408120546001600160a01b0316806102625760405162461bcd60e51b815260040161036290611a5f565b60006001600160a01b0382166104745760405162461bcd60e51b815260040161036290611936565b506001600160a01b031660009081526003602052604090205490565b60606001805461027990611bc8565b6104b16104aa61082f565b8383610a32565b5050565b6104c66104c061082f565b836108a1565b6104e25760405162461bcd60e51b815260040161036290611ad7565b6104ee84848484610ad5565b50505050565b60606104ff8261080a565b6000828152600660205260408120805461051890611bc8565b80601f016020809104026020016040519081016040528092919081815260200182805461054490611bc8565b80156105915780601f1061056657610100808354040283529160200191610591565b820191906000526020600020905b81548152906001019060200180831161057457829003601f168201915b5050505050905060006105a2610b08565b90508051600014156105b657509050610265565b8151156105e85780826040516020016105d092919061151d565b60405160208183030381529060405292505050610265565b6105f184610b1a565b949350505050565b60006106056007610b81565b9050600060088560405160200161061d92919061154c565b6040516020818303038152906040529050600061066686868661063f86610b85565b60405160200161065294939291906115fa565b604051602081830303815290604052610b85565b905060008160405160200161067b91906116ed565b60408051601f1981840301815282820190915260158252740a2d2d2d2d2d2d2d2d2d2d2d2d2d2d2d2d2d2d2d2d60581b602083015291506106bb906107ab565b6106c4816107ab565b6106fa6040518060400160405280601581526020017416969696969696969696969696969696969696968560591b8152506107ab565b6107043385610cf9565b61070e8482610d13565b6107186007610d57565b61073b604051806060016040528060258152602001611c8b602591398533610d60565b7fe2b41c0eada483a58819d500a1436e775ad577a2c2484ff0791a9087b7af4ba3338560405161076c929190611783565b60405180910390a150505050505050565b6001600160a01b03918216600090815260056020908152604080832093909416825291909152205460ff1690565b6107ee816040516024016107bf91906117a7565b60408051601f198184030181529190526020810180516001600160e01b031663104c13eb60e21b179052610da3565b50565b6001600160e01b031981166301ffc9a760e01b14919050565b61081381610dc4565b6107ee5760405162461bcd60e51b815260040161036290611a5f565b3390565b600081815260046020526040902080546001600160a01b0319166001600160a01b038416908117909155819061086882610417565b6001600160a01b03167f8c5be1e5ebec7d5bd14f71427d1e84f3dd0314c0f7b2291e5b200ac8c7c3b92560405160405180910390a45050565b6000806108ad83610417565b9050806001600160a01b0316846001600160a01b031614806108d457506108d4818561077d565b806105f15750836001600160a01b03166108ed846102fc565b6001600160a01b031614949350505050565b826001600160a01b031661091282610417565b6001600160a01b0316146109385760405162461bcd60e51b81526004016103629061183f565b6001600160a01b03821661095e5760405162461bcd60e51b8152600401610362906118bb565b6109698383836103bf565b610974600082610833565b6001600160a01b038316600090815260036020526040812080546001929061099d908490611b85565b90915550506001600160a01b03821660009081526003602052604081208054600192906109cb908490611b3a565b909155505060008181526002602052604080822080546001600160a01b0319166001600160a01b0386811691821790925591518493918716917fddf252ad1be2c89b69c2b068fc378daa952ba7f163c4a11628f55a4df523b3ef91a46103bf8383836103bf565b816001600160a01b0316836001600160a01b03161415610a645760405162461bcd60e51b8152600401610362906118ff565b6001600160a01b0383811660008181526005602090815260408083209487168084529490915290819020805460ff1916851515179055517f17307eab39ab6107e8899845ad3d59bd9653f200f220920489ca2b5937696c3190610ac890859061179c565b60405180910390a3505050565b610ae08484846108ff565b610aec84848484610de1565b6104ee5760405162461bcd60e51b8152600401610362906117ed565b60408051602081019091526000815290565b6060610b258261080a565b6000610b2f610b08565b90506000815111610b4f5760405180602001604052806000815250610b7a565b80610b5984610efc565b604051602001610b6a92919061151d565b6040516020818303038152906040525b9392505050565b5490565b805160609080610ba5575050604080516020810190915260008152610265565b60006003610bb4836002611b3a565b610bbe9190611b52565b610bc9906004611b66565b90506000610bd8826020611b3a565b67ffffffffffffffff811115610bfe57634e487b7160e01b600052604160045260246000fd5b6040519080825280601f01601f191660200182016040528015610c28576020820181803683370190505b5090506000604051806060016040528060408152602001611cb0604091399050600181016020830160005b86811015610cb4576003818a01810151603f601282901c8116860151600c83901c8216870151600684901c831688015192909316870151600891821b60ff94851601821b92841692909201901b91160160e01b835260049092019101610c53565b506003860660018114610cce5760028114610cdf57610ceb565b613d3d60f01b600119830152610ceb565b603d60f81b6000198301525b505050918152949350505050565b6104b1828260405180602001604052806000815250611017565b610d1c82610dc4565b610d385760405162461bcd60e51b81526004016103629061197f565b600082815260066020908152604090912082516103bf92840190611140565b80546001019055565b6103bf838383604051602401610d78939291906117ba565b60408051601f198184030181529190526020810180516001600160e01b031663e3849f7960e01b1790525b80516a636f6e736f6c652e6c6f67602083016000808483855afa5050505050565b6000908152600260205260409020546001600160a01b0316151590565b6000610df5846001600160a01b031661104a565b15610ef157836001600160a01b031663150b7a02610e1161082f565b8786866040518563ffffffff1660e01b8152600401610e339493929190611746565b602060405180830381600087803b158015610e4d57600080fd5b505af1925050508015610e7d575060408051601f3d908101601f19168201909252610e7a91810190611404565b60015b610ed7573d808015610eab576040519150601f19603f3d011682016040523d82523d6000602084013e610eb0565b606091505b508051610ecf5760405162461bcd60e51b8152600401610362906117ed565b805181602001fd5b6001600160e01b031916630a85bd0160e11b1490506105f1565b506001949350505050565b606081610f2157506040805180820190915260018152600360fc1b6020820152610265565b8160005b8115610f4b5780610f3581611c03565b9150610f449050600a83611b52565b9150610f25565b60008167ffffffffffffffff811115610f7457634e487b7160e01b600052604160045260246000fd5b6040519080825280601f01601f191660200182016040528015610f9e576020820181803683370190505b5090505b84156105f157610fb3600183611b85565b9150610fc0600a86611c1e565b610fcb906030611b3a565b60f81b818381518110610fee57634e487b7160e01b600052603260045260246000fd5b60200101906001600160f81b031916908160001a905350611010600a86611b52565b9450610fa2565b6110218383611059565b61102e6000848484610de1565b6103bf5760405162461bcd60e51b8152600401610362906117ed565b6001600160a01b03163b151590565b6001600160a01b03821661107f5760405162461bcd60e51b815260040161036290611a2a565b61108881610dc4565b156110a55760405162461bcd60e51b815260040161036290611884565b6110b1600083836103bf565b6001600160a01b03821660009081526003602052604081208054600192906110da908490611b3a565b909155505060008181526002602052604080822080546001600160a01b0319166001600160a01b03861690811790915590518392907fddf252ad1be2c89b69c2b068fc378daa952ba7f163c4a11628f55a4df523b3ef908290a46104b1600083836103bf565b82805461114c90611bc8565b90600052602060002090601f01602090048101928261116e57600085556111b4565b82601f1061118757805160ff19168380011785556111b4565b828001600101855582156111b4579182015b828111156111b4578251825591602001919060010190611199565b506111c09291506111c4565b5090565b5b808211156111c057600081556001016111c5565b600067ffffffffffffffff808411156111f4576111f4611c5e565b604051601f8501601f19908116603f0116810190828211818310171561121c5761121c611c5e565b8160405280935085815286868601111561123557600080fd5b858560208301376000602087830101525050509392505050565b80356001600160a01b038116811461026557600080fd5b600082601f830112611276578081fd5b610b7a838335602085016111d9565b600060208284031215611296578081fd5b610b7a8261124f565b600080604083850312156112b1578081fd5b6112ba8361124f565b91506112c86020840161124f565b90509250929050565b6000806000606084860312156112e5578081fd5b6112ee8461124f565b92506112fc6020850161124f565b9150604084013590509250925092565b60008060008060808587031215611321578081fd5b61132a8561124f565b93506113386020860161124f565b925060408501359150606085013567ffffffffffffffff81111561135a578182fd5b8501601f8101871361136a578182fd5b611379878235602084016111d9565b91505092959194509250565b60008060408385031215611397578182fd5b6113a08361124f565b9150602083013580151581146113b4578182fd5b809150509250929050565b600080604083850312156113d1578182fd5b6113da8361124f565b946020939093013593505050565b6000602082840312156113f9578081fd5b8135610b7a81611c74565b600060208284031215611415578081fd5b8151610b7a81611c74565b600080600060608486031215611434578283fd5b833567ffffffffffffffff8082111561144b578485fd5b61145787838801611266565b9450602086013591508082111561146c578384fd5b61147887838801611266565b9350604086013591508082111561148d578283fd5b5061149a86828701611266565b9150509250925092565b6000602082840312156114b5578081fd5b5035919050565b600081518084526114d4816020860160208601611b9c565b601f01601f19169290920160200192915050565b600081516114fa818560208601611b9c565b9290920192915050565b6c1e17ba32bc3a1f1e17b9bb339f60991b8152600d0190565b6000835161152f818460208801611b9c565b835190830190611543818360208801611b9c565b01949350505050565b825460009081906002810460018083168061156857607f831692505b602080841082141561158857634e487b7160e01b87526022600452602487fd5b81801561159c57600181146115ad576115d9565b60ff198616895284890196506115d9565b6115b68b611b2e565b885b868110156115d15781548b8201529085019083016115b8565b505084890196505b5050505050506115f16115ec82866114e8565b611504565b95945050505050565b693d913730b6b2911d101160b11b8152845160009061162081600a850160208a01611b9c565b6f011161130ba3a3934b13aba32b9911d160851b600a91840191820152855161165081601a840160208a01611b9c565b7016113232b9b1b934b83a34b7b7111d101160791b601a9290910191820152845161168281602b840160208901611b9c565b7f222c2022696d616765223a2022646174613a696d6167652f7376672b786d6c3b602b92909101918201526618985cd94d8d0b60ca1b604b82015283516116d0816052840160208801611b9c565b61227d60f01b605292909101918201526054019695505050505050565b60007f646174613a6170706c69636174696f6e2f6a736f6e3b6261736536342c0000008252825161172581601d850160208701611b9c565b91909101601d0192915050565b6001600160a01b0391909116815260200190565b6001600160a01b0385811682528416602082015260408101839052608060608201819052600090611779908301846114bc565b9695505050505050565b6001600160a01b03929092168252602082015260400190565b901515815260200190565b600060208252610b7a60208301846114bc565b6000606082526117cd60608301866114bc565b6020830194909452506001600160a01b0391909116604090910152919050565b60208082526032908201527f4552433732313a207472616e7366657220746f206e6f6e20455243373231526560408201527131b2b4bb32b91034b6b83632b6b2b73a32b960711b606082015260800190565b60208082526025908201527f4552433732313a207472616e736665722066726f6d20696e636f72726563742060408201526437bbb732b960d91b606082015260800190565b6020808252601c908201527f4552433732313a20746f6b656e20616c7265616479206d696e74656400000000604082015260600190565b60208082526024908201527f4552433732313a207472616e7366657220746f20746865207a65726f206164646040820152637265737360e01b606082015260800190565b60208082526019908201527f4552433732313a20617070726f766520746f2063616c6c657200000000000000604082015260600190565b60208082526029908201527f4552433732313a2061646472657373207a65726f206973206e6f7420612076616040820152683634b21037bbb732b960b91b606082015260800190565b6020808252602e908201527f45524337323155524953746f726167653a2055524920736574206f66206e6f6e60408201526d32bc34b9ba32b73a103a37b5b2b760911b606082015260800190565b6020808252603e908201527f4552433732313a20617070726f76652063616c6c6572206973206e6f7420746f60408201527f6b656e206f776e6572206e6f7220617070726f76656420666f7220616c6c0000606082015260800190565b6020808252818101527f4552433732313a206d696e7420746f20746865207a65726f2061646472657373604082015260600190565b60208082526018908201527f4552433732313a20696e76616c696420746f6b656e2049440000000000000000604082015260600190565b60208082526021908201527f4552433732313a20617070726f76616c20746f2063757272656e74206f776e656040820152603960f91b606082015260800190565b6020808252602e908201527f4552433732313a2063616c6c6572206973206e6f7420746f6b656e206f776e6560408201526d1c881b9bdc88185c1c1c9bdd995960921b606082015260800190565b90815260200190565b60009081526020902090565b60008219821115611b4d57611b4d611c32565b500190565b600082611b6157611b61611c48565b500490565b6000816000190483118215151615611b8057611b80611c32565b500290565b600082821015611b9757611b97611c32565b500390565b60005b83811015611bb7578181015183820152602001611b9f565b838111156104ee5750506000910152565b600281046001821680611bdc57607f821691505b60208210811415611bfd57634e487b7160e01b600052602260045260246000fd5b50919050565b6000600019821415611c1757611c17611c32565b5060010190565b600082611c2d57611c2d611c48565b500690565b634e487b7160e01b600052601160045260246000fd5b634e487b7160e01b600052601260045260246000fd5b634e487b7160e01b600052604160045260246000fd5b6001600160e01b0319811681146107ee57600080fdfe416e204e465420772f20494420257320686173206265656e206d696e74656420746f2025734142434445464748494a4b4c4d4e4f505152535455565758595a6162636465666768696a6b6c6d6e6f707172737475767778797a303132333435363738392b2fa2646970667358221220162062016fa61ebfca764acbbcaee5b7ce41551873ea8e92eea40e52d183a92a64736f6c634300080100333c73766720786d6c6e733d27687474703a2f2f7777772e77332e6f72672f323030302f73766727207072657365727665417370656374526174696f3d27784d696e594d696e206d656574272076696577426f783d273020302033353020333530273e3c7374796c653e2e62617365207b2066696c6c3a2077686974653b20666f6e742d66616d696c793a2073657269663b20666f6e742d73697a653a20323470783b207d3c2f7374796c653e3c726563742077696474683d273130302527206865696768743d2731303025272066696c6c3d27626c61636b27202f3e3c7465787420783d273530252720793d273530252720636c6173733d27626173652720646f6d696e616e742d626173656c696e653d276d6964646c652720746578742d616e63686f723d276d6964646c65273e",
  "linkReferences": {},
  "deployedLinkReferences": {}
}